:10000000020003758150120159E582600302006FFE
:10001000780079007A007B007C007D00EC4D601C4C
:1000200088828983E493A3A882A9838A828B83F040
:10003000A3AA82AB831CBCFFE31D80E07582007520
:1000400083007C007D00EC4D600AE4F0A31CBCFF43
:10005000F51D80F27582007583007C007D00EC4DFB
:10006000600AE4F0A31CBCFFF51D80F212015812D7
:10007000045380FE436F6D6D616E643A20257300FA
:10008000526573706F6E73653A2025730D0A0041D7
:10009000542B44564944303030300D0A000D0A4587
:1000A000464D384C423132204A44592D3430205389
:1000B0006C61766520546573742E0D0A0041542BD3
:1000C0005645520D0A0041542B424155440D0A0039
:1000D00041542B524649440D0A0041542B44564981
:1000E000440D0A0041542B5246430D0A0041542B43
:1000F000504F57450D0A0041542B434C53530D0AA2
:100100000041542B44564944463444330D0A0041BF
:10011000542B5246433131310D0A004D61737465E1
:100120007220736179733A2025730D0A002A2A2AF6
:1001300020424144204D455353414745202A2A2A15
:100140003A2025730D0A00253035750A003C4E4FC4
:1001500020464C4F41543E002275A7007597DE752E
:1001600097AD75FF8075EF0675A71075C12075A74F
:100170000075A90075A900E5A930E7FB75A903750D
:10018000A903E5A930E7FB43A41143A60175E101EA
:1001900075E20075E341759810758DE6858D8B537A
:1001A000890F438920D28ED299D2A075820022AACB
:1001B00082438E407592B87593FF8592948593958E
:1001C0007591047B00C3EB9A500BE59130E7FB532C
:1001D000917F0B80F075910022AA82AB837C007D19
:1001E00000C3EC9AED9B502B7E00BE0400501D75A1
:1001F00082FAC002C003C004C005C0061201AFD01D
:1002000006D005D004D003D0020E80DE0CBC00D195
:100210000D80CE22AA82AB83ACF0FD75A72075932A
:100220000C75C8107594008A128B138C148D159060
:10023000A20075F04A74041205F0AA82AB83ACF0F8
:10024000FD751218E4F513F514F5158A828B838C6D
:10025000F0ED1205F0AA82AB83ACF0FDE4C39AFA8C
:10026000E49BFB74019CE49D8A958B96D2C94394D0
:100270004075A70022AA8275A72010C90280FB8AB8
:100280009275A70022AA82AB83ACF08A828B838C02
:10029000F01205D4FD60188D82C002C003C00412A4
:1002A0000275D004D003D0020ABA00DF0B80DC2232
:1002B00075A72010C80280FB53C83F85928275A79E
:1002C000002275A7207A007B0020C82675A700753C
:1002D0008214C002C0031201AFD003D00275A72060
:1002E0000ABA00010BBAA8E1BB61DE75A7007582EE
:1002F0000A22C2C853C83F85928275A70022AA82EB
:10030000AB83ACF07D008A068B078C00C002C00373
:10031000C004C005C006C007C0001202C2A982D036
:1003200000D007D006D005D004D003D002B90A0A05
:100330008A828B838CF0E402068BC3ED95095018FA
:100340000D8E828F8388F0E912068BA3AE82AF8375
:100350008E028F03880480B48A828B838CF0E4023F
:10036000068B75A720A2C875A70022AA82AB837C42
:10037000007D00C3EC9AED9B50477E00BE04005008
:1003800039C002C003C004C005C006120362E433D2
:10039000D006D005D004D003D0026001227582FAC5
:1003A000C002C003C004C005C0061201AFD006D011
:1003B00005D004D003D0020E80C20CBC00B50D8065
:1003C000B222AA82AB83ACF0C002C003C004C00258
:1003D000C003C0047474C0E07400C0E07480C0E066
:1003E00012066AE58124FAF581C2A0900005120187
:1003F000D9D004D003D0028A828B838CF01202857C
:1004000075091390003775F0401202FE90000A1231
:1004100001D9D2A07437C0E07400C0E07440C0E0DD
:100420007480C0E07400C0E07480C0E012066AE529
:100430008124FAF58122C2A090000A1201D990000D
:100440008F75F08012028590000A1201D953C83FBF
:10045000D2A0229001F41201D9749DC0E07400C0B2
:10046000E07480C0E012066A15811581158190251F
:1004700080E4F5F01202141204369000BD75F0808D
:100480001203C29000C675F0801203C29000D075AE
:10049000F0801203C29000DA75F0801203C290005F
:1004A000E475F0801203C29000ED75F0801203C273
:1004B0009000F775F0801203C290010175F0801270
:1004C00003C290010F75F0801203C27A007B00C056
:1004D00002C003120362E433D003D00260F1C00211
:1004E000C0031202B0AC82D003D002BC2102800350
:1004F00002057175091390003775F040C002C00302
:100500001202FE90003775F040120739AD82AE83BB
:10051000D003D002BD0D2EBE002BC002C003743725
:10052000C0E07400C0E07440C0E0741BC0E074011F
:10053000C0E07480C0E012066AE58124FAF581D03B
:1005400003D002808AC002C0037437C0E07400C0C8
:10055000E07440C0E0742DC0E07401C0E07480C05D
:10056000E012066AE58124FAF581D003D002020484
:10057000CFBC400280030204CFC002C003C002C04F
:10058000037447C0E07401C0E07480C0E07437C0F9
:10059000E07400C0E07440C0E01206F3E58124F886
:1005A000F581D003D0020ABA00010B0ABA00010B90
:1005B0000ABA00010B0ABA00010B900005C002C084
:1005C000031201D990003775F040120285D003D094
:1005D000020204CF20F71430F6148883A88220F595
:1005E00007E6A88375830022E280F7E49322E022E5
:1005F000FB7A20E4FCFDFEFFE5822582F582E5839F
:1006000033F583E5F033F5F0EB33FB4017DAE9809F
:1006100042E5822582F582E58333F583E5F033F503
:10062000F0EB33FBEC33FCED33FDEE33FEEF33FF49
:10063000EC9512ED9513EE9514EF95154013EC958E
:1006400012FCED9513FDEE9514FEEF9515FF438218
:1006500001DABEEB22020D8185823085833185F07F
:10066000328511339006550207EAC008858108E5F6
:100670000824FBF533E50824FBF8863008863108AA
:1006800086329006551207EAD0082220F71030F67D
:10069000118883A88220F507F6A88375830022F2CB
:1006A00080F7F022AA82AB0AAC0BAD0C8B828C8354
:1006B0008DF0EA12068B050AE4B50A02050B2285C5
:1006C000820A85830B85F00C850D30850E31850FF0
:1006D000328510339006A41207EAAA82AB83AC0AD3
:1006E000AD0BAE0C8C828D838EF0E412068B8A8269
:1006F0008B8322C008858108E50824F8F533E508D6
:1007000024FBF8860A08860B08860CE50824F8F80E
:1007100086300886310886329006A41207EAAA823B
:10072000AB83AC0AAD0BAE0C8C828D838EF0E412E1
:10073000068B8A828B83D00822AA82AB83ACF07DA1
:10074000007E008A828B838CF01205D4FFA3AA82DC
:10075000AB83EF60070DBD00EA0E80E78D828E83CC
:1007600022AA827472C0E07407C0E0C022C0238A4B
:1007700082220529E4B52902052A22AA8274302A98
:10078000FA24C6500A74072AFA3000034302208A6A
:1007900082020761E582FAC4540FF582C002120793
:1007A0007BD002740F5AF58202077BAA24AB25ACDA
:1007B00026AD27AE28752F20EE2EFEED235401FF27
:1007C0004206EA2AFAEB33FBEC33FCED33FDC3EED1
:1007D000952B4008EEC3952BFE430201D52FD98AF5
:1007E000248B258C268D278E2822858222858323A3
:1007F000E4F529F52AAA30AB31AC328A828B838C9E
:10080000F01205D4FD74012AF530E43BF5318C3249
:10081000EDFA7003020D7ABA25028003020D72C24E
:1008200004C205C206C207C208C209C20AC20BC27C
:1008300001C202C203752B00752C00752DFFAB3071
:10084000AC31AD328B828C838DF01205D4FAA3AB20
:1008500082AC838B308C318D32BA25078A821207A5
:100860006180928A06BE3000402E8A06EE24C64081
:100870002774FFB52D13E52C75F00AA4FEEA24D0E9
:100880002EF52C70BFD20580BBE52D75F00AA4FEB5
:10089000EA24D02EF52D80ACBA2E0A74FFB52DA413
:1008A000752D00809F8A06BE6100400E8A06EE24E8
:1008B0008540075302DFD2008002C200BA200280C6
:1008C00075BA2303020945BA2A0302094ABA2B0260
:1008D000805FBA2D028055BA4202805FBA4303029C
:1008E000098FBA4403020ACABA4503020AE4BA46A7
:1008F00003020AE0BA4703020AE8BA4903020ACA35
:10090000BA4C02803BBA4E03020AECBA4F03020A09
:10091000D1BA5003020A63BA53030209B3BA5503AA
:10092000020AD6BA5803020ADB020B16D2040208E6
:1009300044D206020844D207020844D209020844FD
:10094000D20A020844D20B02084474FFB52D2030AD
:10095000090BE53314F88833862C020844E5332468
:10096000FEF888338606088607188E2C0208443065
:10097000090BE53314F88833862D020844E5332447
:10098000FEF888338606088607188E2D0208443044
:10099000090AE53314F888338602800FE53324FE14
:1009A000F888338603088604188B028A821207614E
:1009B000020B1BE53324FDF8883386030886040800
:1009C000860518188B248C258D268B828C838DF0C0
:1009D000120739AB82AC838B2E74FFB52D03852EA5
:1009E0002D20041DC3E52E952C5016E52CC3952E05
:1009F000F52CAB2C152CEB6008758220120761805A
:100A0000F18524828525838526F01205D4FBFA60C2
:100A100029AB2D152DC3E464808BF063F08095F035
:100A200050188A82120761AB24AC25AD260BBB009F
:100A3000010C8B248C258D2680C7200403020B1B00
:100A4000C3E52E952C4003020B1BE52CC3952EF518
:100A50002CAB2C152CEB7003020B1B75822012079C
:100A60006180EEE53324FDF88833860308860408A8
:100A7000860518188B248C258D26E526FB30E70487
:100A80007A438013EB546060047A50800AEB30E6BE
:100A9000047A4980027A588A82C0021207617582FC
:100AA0003A12076175823012076175827812076108
:100AB000D002BA4902800BBA500280068525821204
:100AC00007948524821207948051D208752B0A80DE
:100AD0004A752B088045752B0A8040752B10803B8A
:100AE000D2018037D2028033D203802FE53324FD38
:100AF000F88833860308860408860518188B248C2A
:100B0000258D268B828C838DF0E52912068BA3E53B
:100B10002A12068B80058A821207612001062002B4
:100B20000330035AE53324FCF8883386030886042F
:100B30000886050886061818188B248C258D268EA5
:100B40002775244D75250175268085243485253526
:100B500085263674012534FEE43535FFAB368E2408
:100B60008F258B268534828535838536F01205D412
:100B7000FBFA70030207F58A8212076180CCE52B2D
:100B800070030207F57B5030092BE53314F88833E6
:100B9000E6FC3395E0FDFEFF8C248D258E268F2705
:100BA00020085EAC247D007E007F008C248D258E85
:100BB000268F27804C300A1FE53324FCF8883386C3
:100BC000040886050886060886071818188C248DE0
:100BD000258E268F27802AE53324FEF88833860465
:100BE00008860518ED3395E0FEFF8C248D258E26B2
:100BF0008F2720080CAC24AD257E007F008E268F29
:100C000027300B43E52445254526452760397408E0
:100C1000B52B0C758230C003120761D00380287495
:100C200010B52B23758230C003120761D00330004A
:100C30000C758278C003120761D003800A75825850
:100C4000C003120761D003300825AC24AD25AE26C1
:100C5000E527FF30E717C3E49CFCE49DFDE49EFE1E
:100C6000E49FFF8C248D258E268F278002C2087575
:100C70002E00D20C8B00752800C0001207ABD000EC
:100C8000200C0DE528C4FCE6FD4CF6188803800214
:100C9000A628052EB20CE52445254526452770D605
:100CA0008803E52C7003752C0120051A200417E534
:100CB0002E04FCC3952C500E758220C003120761D0
:100CC000D003152C80E930080E75822DC003120761
:100CD00061D003152C8024E52E602030060E75822D
:100CE0002BC003120761D003152C800F30070C7541
:100CF0008220C003120761D003152C20041EAC2CE7
:100D0000152CC3E52E9C50273005047C3080027CD6
:100D1000208C82C003120761D00380E2C3E52E95C8
:100D20002C5009E52CC3952EF52C8003752C008BD7
:100D300000AB2E152EEB6022B20C200C0A08E6C484
:100D4000540FFB8B2880078603740F5BF5288528DA
:100D500082C00012077BD00080D72004030207F571
:100D6000AB2C152CEB70030207F57582201207617E
:100D700080EE8A821207610207F5852982852A831F
:100D800022AA82BA0A0810990280FB75990D10995F
:100D90000280FB8A99220000000000000000000091
:00000001FF
