:1000000002000375816B1202CCE582600302006F6F
:10001000780079007A007B007C007D00EC4D601C4C
:1000200088828983E493A3A882A9838A828B83F040
:10003000A3AA82AB831CBCFFE31D80E07582007520
:1000400083007C217D00EC4D600AE4F0A31CBCFF22
:10005000F51D80F27582007583007C007D00EC4DFB
:10006000600AE4F0A31CBCFFF51D80F212007412BC
:10007000098180FEE4F537F538E4F522F52375248F
:100080009675259622000000000000000000000088
:100090000000000203AF303132333435363738399F
:1000A00041424344454600436F6D6D616E643A20A2
:1000B000257300526573706F6E73653A2025730D5A
:1000C0000A004D617374657220736179733A20255B
:1000D000730D0A002A2A2A20424144204D455353D9
:1000E000414745202A2A2A3A2025730D0A00253047
:1000F00035750A0041542B44564944303030300D98
:100100000A000D0A45464D384C423132204A4459C6
:100110002D343020536C61766520546573742E0D38
:100120000A0041542B5645520D0A0041542B4241BE
:1001300055440D0A0041542B524649440D0A0041D2
:10014000542B445649440D0A0041542B5246430D4A
:100150000A0041542B504F57450D0A0041542B4380
:100160004C53530D0A0041542B44564944463444E1
:10017000330D0A0041542B5246433131310D0A00F0
:100180001B5B324A1B5B313B3148000D0A45464D33
:10019000384C423132206D756C746920492F4F20E4
:1001A0006578616D706C652E0D0A004D6561737523
:1001B0007265732074686520766F6C746167652062
:1001C00066726F6D2070696E732050322E3220611E
:1001D0006E642050322E330D0A004D6561737572C6
:1001E000657320706572696F64206F6E2050312EC8
:1001F000350D0A00546F67676C65732070696E7304
:100200002050312E302C2050312E312C2050312EC8
:10021000322C2050312E332C2050312E340D0A0038
:1002200047656E65726174657320736572766F20C1
:1002300050574D73206F6E2050312E3620616E6402
:100240002050312E370D0A005265616473207468A6
:100250006520424F4F5420707573682D6275747419
:100260006F6E206F6E2070696E2050332E370D0A2E
:100270000D0A002131303030312131303030312120
:1002800031303030312100663D00487A2C20636FD8
:10029000756E743D00202020202020202020200D7D
:1002A000004E4F205349474E414C20202020202013
:1002B0002020202020202020202020202020200D51
:1002C000003C4E4F20464C4F41543E0075A70075F0
:1002D00097DE7597AD43FF8075EF0275A71075C166
:1002E0002075A70075A90075A900E5A930E7FB7581
:1002F000A90375A903E5A930E7FB43A5C043A410F2
:1003000043A60143A61E75E10175E20075E3417540
:100310009810858E8E758DE6858D8B53890F438958
:1003200020D28ED29975A71075C00075D4FF75D5EF
:10033000FF43F308D2C2D2AF75A700D2A0758200E6
:100340002275A700C2EF75B28075BC2075B91E7505
:10035000E80075DF3F75B300D2EF22AA828511F065
:1003600005F07401800225E0D5F0FBFB75A720BAEB
:100370000002800ABA0102800FBA021E8014EBF458
:10038000FA52F1EB42D48012EBF4FA52F2EB42D57E
:100390008008EBF4FA52F3EB42CC75A70022858279
:1003A000BBC2EDD2EC30EDFD85BD8285BE8322C09F
:1003B000E0C002C003C0D075D00075A710C2C775D9
:1003C000D2C475D3FF74012522F522E43523F52329
:1003D00074D0B5220A7407B52305E4F522F523AAE3
:1003E000247B00C3EA9522EB95234004D296800239
:1003F000C296AA257B00C3EA9522EB95234004D23E
:10040000978002C297D0D0D003D002D0E032AA8227
:10041000438E407592B87593FF8592948593957538
:1004200091047B00C3EB9A500BE59130E7FB5391AD
:100430007F0B80F075910022AA82AB83BA0004BBC7
:100440000001227582F9C002C00312040E7582F900
:1004500012040E7582F912040E7582FA12040ED07F
:1004600003D0021ABAFF011B80D2AA82AB83C28CCE
:100470005389F0438901C28C758A00758C00C28D46
:10048000D28C7C007D00309519108D0280F80CBC58
:1004900000010DBC0AF0BD00EDC28C900000E4F537
:1004A000F022C28C758A00758C00C28DD28C7C00C3
:1004B0007D00209519108D0280F80CBC00010DBC48
:1004C0000AF0BD00EDC28C900000E4F5F022C28C71
:1004D000758A00758C00C28D7C007D00D28C7E00F8
:1004E0008E077800C3EF9AE864808BF063F0809504
:1004F000F050298C078D0030950C108D0280F80F7C
:10050000BF00F40880F120950C108D0280F80FBF19
:1005100000F40880F18F0488050E80C4C28C8D031E
:100520008C027D007C00AF8C7E00EF3395E0F8F903
:10053000EE2CFCEF3DFDE83AFAE93BFBAE8AE4FF26
:100540003395E0F8F9EE2CFCEF3DFDE83AFAE93B93
:100550008C828D838AF022AA82AB83ACF08A828B54
:10056000838CF0120B8CFD60188D82C002C003C01A
:1005700004120F68D004D003D0020ABA00DF0B8047
:10058000DC2285822A85832B85F02CF52D90002096
:10059000E4F0E52D30E71B75822D120F68C3E4955A
:1005A0002AF52AE4952BF52BE4952CF52CE4952DD2
:1005B000F52D752E1FE4F52FA828A929C3E4952A47
:1005C000E4952BE4952CE46480852DF063F0809510
:1005D000F0E433FEC3E498E4648089F063F080952E
:1005E000F0E433FF4E700302067CAE2EAF2F152EC3
:1005F00074FFB52E02152FEE2400F530EF3400F510
:1006000031852632E527F5333395E0F534F5358528
:100610003211853312853413853514852A82852B52
:1006200083852CF0E52DC000C001120E3EAE82AFD6
:1006300083EE2496F582EF3400F583E493853082CF
:10064000853183F085321185331285341385351455
:10065000852A82852B83852CF0E52D120DB68582A7
:100660002A85832B85F02CF52DD001D000E8497028
:10067000030205BC18B8FF01190205BCE52E0424CD
:1006800000FAE43400FB7C008A828B838CF0020544
:1006900057AA82AB83ACF0FD75A72075930C75C883
:1006A000107594008A118B128C138D1490A2007512
:1006B000F04A7404120C16AA82AB83ACF0FD7511DB
:1006C00018E4F512F513F5148A828B838CF0ED1281
:1006D0000C16AA82AB83ACF0FDE4C39AFAE49BFB50
:1006E00074019CE49D8A958B96D2C943944075A76A
:1006F0000022AA8275A72010C90280FB8A9275A7E2
:100700000022AA82AB83ACF08A828B838CF0120B1E
:100710008CFD60188D82C002C003C0041206F2D0A6
:1007200004D003D0020ABA00DF0B80DC2275A720B8
:1007300010C80280FB53C83F85928275A7002275BE
:10074000A7207A007B0020C82675A700758214C0F8
:1007500002C00312040ED003D00275A7200ABA000B
:10076000010BBAA8E1BB61DE75A70075820A22C23F
:10077000C853C83F85928275A70022AA82AB83AC7A
:10078000F07D008A068B078C00C002C003C004C045
:1007900005C006C007C00012073FA982D000D007DD
:1007A000D006D005D004D003D002B90A0A8A828BC1
:1007B000838CF0E4020EBAC3ED953650180D8E828C
:1007C0008F8388F0E9120EBAA3AE82AF838E028FB8
:1007D00003880480B48A828B838CF0E4020EBA759D
:1007E000A720A2C875A70022AA82AB837C007D0047
:1007F000C3EC9AED9B50477E00BE04005039C00206
:10080000C003C004C005C0061207DFE433D006D021
:1008100005D004D003D0026001227582FAC002C064
:1008200003C004C005C00612040ED006D005D004D3
:10083000D003D0020E80C20CBC00B50D80B222AA3B
:1008400082AB83ACF0C002C003C004C002C003C0CE
:100850000474A7C0E07400C0E07480C0E0120E1DF4
:10086000E58124FAF581C2A0900005120438D00475
:10087000D003D0028A828B838CF012070275361364
:1008800090005275F04012077B90000A120438D293
:10089000A07452C0E07400C0E07440C0E074B3C003
:1008A000E07400C0E07480C0E0120E1DE58124FAFF
:1008B000F581221207DF40012212072DAA82BA21F8
:1008C0006375361390005275F04012077B9000520A
:1008D00075F04012109CAB82AC83BB0D25BC00228E
:1008E0007452C0E07400C0E07440C0E074C2C0E064
:1008F0007400C0E07480C0E0120E1DE58124FAF59A
:1009000081227452C0E07400C0E07440C0E074D42E
:10091000C0E07400C0E07480C0E0120E1DE58124C8
:10092000FAF58122BA403CC037C03874EEC0E0749A
:1009300000C0E07480C0E07452C0E07400C0E07495
:1009400040C0E0120F22E58124F8F5810537E4B5B7
:100950003702053890000512043890005275F040B7
:1009600002070222C2A090000A1204389000F47517
:10097000F08012070290000A12043853C83FD2A038
:10098000229001F41204387402C0E07401C0E074D3
:1009900080C0E0120E1D158115811581902580E41F
:1009A000F5F012069112096490012275F080120888
:1009B0003F90012B75F08012083F90013575F08053
:1009C00012083F90013F75F08012083F9001497571
:1009D000F08012083F90015275F08012083F90019C
:1009E0005C75F08012083F90016675F08012083F38
:1009F00090017475F08012083F1203419003E812D1
:100A0000043890018075F08012055790018B75F0C5
:100A1000801205579001AB75F0801205579001DAEE
:100A200075F0801205579001F475F080120557900B
:100A3000022075F08012055790024875F08012056B
:100A400057C2A1C2A2C2A3C2A4C2A5C2A1C2A2C2CD
:100A5000A3C2A41208B37452C0E07400C0E0744092
:100A6000C0E0120E1D158115811581751173751267
:100A70000275138090005275F040120D59E5828581
:100A800083F045F07002D2A190001E12046A8582A4
:100A90003985833A85F03BF53CC3E49539E4953AD2
:100AA000E4953BE46480853CF063F08095F040037E
:100AB000020B60853911853A12853B13853C1490F1
:100AC000000CE4F5F0120BA8120E8DAA82AB83ACD9
:100AD000F0FDC002C003C004C00590BEFC75F0006C
:100AE000744F120F7DAA82AB83ACF0FDE58124FC2C
:100AF000F5818A828B838CF0ED120C7BAA82AB830A
:100B0000ACF0FD90028775F080C002C003C004C045
:100B100005120557D005D004D003D00275260AE48B
:100B2000F527752807E4F5298A828B838CF0ED126E
:100B3000058290028A75F08012055775260AE4F541
:100B400027752808E4F529853982853A83853BF0A5
:100B5000E53C12058290029575F0801205578009D8
:100B60009002A175F08012055774382524400405C1
:100B7000248003752464E525249B500415258003F7
:100B80007525C89000C8120438020A4B20F71430AB
:100B9000F6148883A88220F507E6A88375830022CF
:100BA000E280F7E49322E022AAF0FBE5828511F0CF
:100BB000A4FCADF0E5838511F0A42DFDE435F0FE35
:100BC000E5828512F0A42DFDE5F03EFEE433FFEA58
:100BD0008511F0A42EFEE5F03FFFE5838512F0A419
:100BE0002EFEE5F03FFFE5828513F0A42EFEE5F032
:100BF0003FFFEB8511F0A42FFFEA8512F0A42FFF31
:100C0000E5838513F0A42FFFE5828514F0A42F8ED1
:100C1000F08D838C8222FB7A20E4FCFDFEFFE582CE
:100C20002582F582E58333F583E5F033F5F0EB3388
:100C3000FB4017DAE98042E5822582F582E58333BD
:100C4000F583E5F033F5F0EB33FBEC33FCED33FDEE
:100C5000EE33FEEF33FFEC9511ED9512EE9513EFA9
:100C600095144013EC9511FCED9512FDEE9513FED5
:100C7000EF9514FF438201DABEEB221210C4C37455
:100C80009E9582403979001210D630D126E9F4249D
:100C900001F582EAF43400F583EBF43400F5F0EC6E
:100CA000F43400700AE582458345F0700122E43097
:100CB000E70F22EC20E71489828A838BF02230D15F
:100CC0000AE4F582F583F5F074802274FFF582F56D
:100CD00083F5F0747F22F9E5114512451345146040
:100CE000777800C308E51420E73BE51125E0F5110E
:100CF000E51233F512E51333F513E51433F514E576
:100D0000829511E5839512E5F09513E9951450D479
:100D1000C3E51413F514E51313F513E51213F512D7
:100D2000E51113F511E5829511FCE5839512FDE5BA
:100D3000F09513FEE995144007F98EF08D838C82AF
:100D4000C3E51413F514E51313F513E51213F512A7
:100D5000E51113F511D8CEE922AA82AB83ACF0AD30
:100D600011AE12AF138A828B838CF0120B8CF87940
:100D700000C002C003C0048D828E838FF0120B8CE2
:100D8000FA7B00E8C39AF8E99BF988148915D00426
:100D9000D003D002E84970178D828E838FF0120B3A
:100DA0008C600C0ABA00010B0DBD00B90E80B6852F
:100DB000148285158322FBC2D530E715D2D5E4C352
:100DC0009582F582E49583F583E495F0F5F0E49B54
:100DD000FBE51430E717B2D5E4C39511F511E4959E
:100DE00012F512E49513F513E49514F514EB120CB7
:100DF0001630D513FBE4C39582F582E49583F58321
:100E0000E495F0F5F0E49B22020F6885824B858320
:100E10004C85F04D85104E900E080211A2C0088539
:100E20008108E50824FBF54EE50824FBF8864B080D
:100E3000864C08864D900E081211A2D00822F9C2E5
:100E4000D530E715D2D5E4C39582F582E49583F5D4
:100E500083E495F0F5F0E499F9E51430E715E4C37F
:100E60009511F511E49512F512E49513F513E49537
:100E700014F514E9120CD630D512E4C39582F5822C
:100E8000E49583F583E495F0F5F0E49922FCABF06A
:100E9000AA83A982749EF582C2D1EC30E716D2D122
:100EA000E9F42401F9EAF43400FAEBF43400FBEC41
:100EB000F43400FC12178802173920F71030F611AD
:100EC0008883A88220F507F6A88375830022F28024
:100ED000F7F022AA82AB09AC0AAD0B8B828C838D12
:100EE000F0EA120EBA0509E4B50902050A22858264
:100EF0000985830A85F00B850C4B850D4C850E4DBD
:100F0000850F4E900ED31211A2AA82AB83AC09AD0D
:100F10000AAE0B8C828D838EF0E4120EBA8A828B1D
:100F20008322C008858108E50824F8F54EE50824E9
:100F3000FBF8860908860A08860BE50824F8F88677
:100F40004B08864C08864D900ED31211A2AA82AB94
:100F500083AC09AD0AAE0B8C828D838EF0E4120E49
:100F6000BA8A828B83D00822AA82BA0A0810990210
:100F700080FB75990D10990280FB8A99221217BB8C
:100F800030D502B2D1BF0009BC000302177D0217A1
:100F900070BC000302175AE583B4FF0BE582B4FF6F
:100FA0000302177D02175AE582B4FF03021770C3CC
:100FB00095835007247F400B02175A248014500356
:100FC000021770C0E0E4CCCBCAF98D118E128F13DA
:100FD000EF54F0C4F5147583068514F0EB84F582A4
:100FE000E9C4F9EAC4FAEBC4FBEC540FC47803D6A5
:100FF000FC18EBD6FB18EAD6FA8582F0EDA4A8F02F
:10100000FD8582F0EEA428FEE435F0F88582F0EF4D
:10101000A428FFE435F0F8E99DF9EA9EFAEB9FFB7E
:10102000EC98FCAD11AE12AF1330E7101582E92D2C
:10103000F9EA3EFAEB3FFBE43CFC80EDC082D5834D
:1010400098C3E933F9EA33FAEB33FBEC33FCC3E939
:101050009DEA9EEB9FEC9400B3E413F9D002D0E03C
:10106000C44AFAD003D0E0C44BFBD004D0E0F5F082
:10107000540FC44CFCD082158230F40FD3EC13FC17
:10108000EB13FBEA13FAE913F90582E930E70A7476
:10109000012AFAE43BFBE43CFC021751AA82AB8331
:1010A000ACF07D007E008A828B838CF0120B8CFF6B
:1010B000A3AA82AB83EF60070DBD00EA0E80E78D27
:1010C000828E8322AA82AB83A2F73392D16002D2AE
:1010D000F7F582ACF0226040F82582500274FFF5EB
:1010E00082E824F8501ECCCBCAF9E4CC24F8501482
:1010F000CBCAF9E4CB24F8500BCAF9E4CA24F8505F
:101100000379002224086010F8C3EC13FCEB13FBF6
:10111000EA13FAE913F9D8F122AA82742AC0E0741A
:1011200011C0E0C03DC03E8A82220544E4B54402BD
:10113000054522AA8274302AFA24C6500A74072A66
:10114000FA3000034302208A82021119E582FAC4B0
:10115000540FF582C002121133D002740F5AF58277
:10116000021133AA3FAB40AC41AD42AE43754A20B9
:10117000EE2EFEED235401FF4206EA2AFAEB33FB82
:10118000EC33FCED33FDC3EE95464008EEC39546C7
:10119000FE430201D54AD98A3F8B408C418D428E55
:1011A000432285823D85833EE4F544F545AA4BAB59
:1011B0004CAC4D8A828B838CF0120B8CFD74012A0F
:1011C000F54BE43BF54C8C4DEDFA7003021732BA47
:1011D0002502800302172AC204C205C206C207C242
:1011E00008C209C20AC20BC201C202C2037546008C
:1011F0007547007548FFAB4BAC4CAD4D8B828C8373
:101200008DF0120B8CFAA3AB82AC838B4B8C4C8D84
:101210004DBA25078A8212111980928A06BE3000C3
:10122000402E8A06EE24C6402774FFB54813E547D2
:1012300075F00AA4FEEA24D02EF54770BFD20580CF
:10124000BBE54875F00AA4FEEA24D02EF54880AC30
:10125000BA2E0A74FFB548A4754800809F8A06BE5E
:101260006100400E8A06EE248540075302DFD2005B
:101270008002C200BA20028075BA23030212FDBAAE
:101280002A03021302BA2B02805FBA2D028055BADC
:101290004202805FBA4303021347BA440302148236
:1012A000BA450302149CBA4603021498BA470302D3
:1012B00014A0BA4903021482BA4C02803BBA4E030E
:1012C0000214A4BA4F03021489BA500302141BBAC1
:1012D000530302136BBA550302148EBA5803021457
:1012E000930214CED2040211FCD2060211FCD207E2
:1012F0000211FCD2090211FCD20A0211FCD20B022B
:1013000011FC74FFB5482030090BE54E14F8884EE7
:1013100086470211FCE54E24FEF8884E86060886B4
:1013200007188E470211FC30090BE54E14F8884E61
:1013300086480211FCE54E24FEF8884E8606088693
:1013400007188E480211FC30090AE54E14F8884E41
:101350008602800FE54E24FEF8884E860308860438
:10136000188B028A821211190214D3E54E24FDF85B
:10137000884E860308860408860518188B3F8C4023
:101380008D418B828C838DF012109CAB82AC838B51
:101390004974FFB5480385494820041DC3E54995B4
:1013A000475016E547C39549F547AB471547EB60EE
:1013B0000875822012111980F1853F82854083854E
:1013C00041F0120B8CFBFA6029AB481548C3E4646A
:1013D000808BF063F08095F050188A82121119AB5F
:1013E0003FAC40AD410BBB00010C8B3F8C408D41AD
:1013F00080C72004030214D3C3E549954740030284
:1014000014D3E547C39549F547AB471547EB700340
:101410000214D375822012111980EEE54E24FDF8D6
:10142000884E860308860408860518188B3F8C4072
:101430008D41E541FB30E7047A438013EB54606053
:10144000047A50800AEB30E6047A4980027A588A9E
:1014500082C00212111975823A1211197582301266
:101460001119758278121119D002BA4902800BBA8B
:101470005002800685408212114C853F8212114C29
:101480008051D20875460A804A75460880457546DF
:101490000A8040754610803BD2018037D2028033EB
:1014A000D203802FE54E24FDF8884E86030886047B
:1014B00008860518188B3F8C408D418B828C838D5C
:1014C000F0E544120EBAA3E545120EBA80058A82F1
:1014D00012111920010620020330035AE54E24FCA4
:1014E000F8884E86030886040886050886061818BC
:1014F000188B3F8C408D418E42753FC175400275FF
:101500004180853F4F8540508541517401254FFEF4
:10151000E43550FFAB518E3F8F408B41854F828524
:1015200050838551F0120B8CFBFA70030211AD8AC7
:101530008212111980CCE54670030211AD7B6B302D
:10154000092BE54E14F8884EE6FC3395E0FDFEFFCE
:101550008C3F8D408E418F4220085EAC3F7D007EE7
:10156000007F008C3F8D408E418F42804C300A1F9F
:10157000E54E24FCF8884E86040886050886060891
:1015800086071818188C3F8D408E418F42802AE5BF
:101590004E24FEF8884E860408860518ED3395E043
:1015A000FEFF8C3F8D408E418F4220080CAC3FAD3A
:1015B000407E007F008E418F42300B43E53F454027
:1015C0004541454260397408B5460C758230C00308
:1015D000121119D00380287410B54623758230C0CB
:1015E00003121119D00330000C758278C003121158
:1015F00019D003800A758258C003121119D0033024
:101600000825AC3FAD40AE41E542FF30E717C3E4EB
:101610009CFCE49DFDE49EFEE49FFF8C3F8D408E8C
:10162000418F428002C208754900D20C8B0075437D
:1016300000C000121163D000200C0DE543C4FCE68D
:10164000FD4CF61888038002A6430549B20CE53F1D
:1016500045404541454270D68803E54770037547CC
:101660000120051A200417E54904FCC39547500ED4
:10167000758220C003121119D003154780E9300884
:101680000E75822DC003121119D00315478024E571
:1016900049602030060E75822BC003121119D00349
:1016A0001547800F30070C758220C003121119D026
:1016B00003154720041EAC471547C3E5499C502736
:1016C0003005047C3080027C208C82C0031211190A
:1016D000D00380E2C3E54995475009E547C39549E2
:1016E000F54780037547008B00AB491549EB602235
:1016F000B20C200C0A08E6C4540FFB8B438007860B
:1017000003740F5BF543854382C000121133D00090
:1017100080D72004030211ADAB471547EB700302DD
:1017200011AD75822012111980EE8A8212111902F0
:1017300011AD85448285458322B98003EA13B34005
:1017400010EA2401FAE43BFBE43CFC50047C8005F5
:1017500082BC000EBB000BBA0008E4F5F0F583F57F
:101760008222A2D1E582138CF092F78B838A8222A7
:10177000E4F583F58275F080F4A2D11322E4F583B9
:10178000F58275F0C0747F227804EC7011E5822434
:10179000F8500AF582E4C9CACBFCD8EF22EC7820D5
:1017A000058220E713D5820122C3E933F9EA33FA2F
:1017B000EB33FBEC33FCD8EA158222AA82AB83A27E
:1017C000F73392D16002D2F7F582ACF0E58124F9CB
:1017D000F8E6FD08E6FE0886F008E6A2F73392D5A3
:1017E0006002D2F7F583AFF0220000000000000095
:00000001FF
